:020000040800F2
:10000000300B0020890100087D0500084305000829
:1000100079050008310200085B13000800000000A9
:10002000000000000000000000000000550600086D
:100030003502000800000000110600084107000812
:10004000A3010008A3010008A3010008A301000800
:10005000A3010008A3010008A3010008A3010008F0
:10006000A3010008A3010008A3010008A3010008E0
:10007000A3010008A3010008A3010008A3010008D0
:10008000A3010008A3010008A3010008A3010008C0
:10009000A3010008A3010008A3010008A3010008B0
:1000A000A3010008A3010008A3010008A3010008A0
:1000B000BD0F0008D90F0008A3010008A301000824
:1000C000A3010008A3010008A3010008A301000880
:1000D000A30100087D110008051200087512000830
:1000E00039020008A3010008A301000800F002F88B
:1000F00000F03AF80AA090E8000C82448344AAF188
:100100000107DA4501D100F02FF8AFF2090EBAE885
:100110000F0013F0010F18BFFB1A43F0010318473B
:100120000C5000002C500000103A24BF78C878C151
:10013000FAD8520724BF30C830C144BF04680C60ED
:10014000704700000023002400250026103A28BF35
:1001500078C1FBD8520728BF30C148BF0B60704739
:100160001FB51FBD10B510BD00F033F81146FFF7E5
:10017000F7FF01F013F900F051F803B4FFF7F2FFB5
:1001800003BC01F0ECF8000009488047094800472B
:10019000FEE7FEE7FEE7FEE7FEE7FEE7FEE7FEE737
:1001A000FEE7FEE704480549054A064B7047000094
:1001B00045070008ED00000830050020300B002046
:1001C00030070020300700207047704770477047A5
:1001D0007047754600F028F8AE460500694653465C
:1001E00020F00700854618B020B5FFF7DBFFBDE81B
:1001F00020404FF000064FF000074FF000084FF08E
:10020000000B21F00701AC46ACE8C009ACE8C0091E
:10021000ACE8C009ACE8C0098D4670470446AFF3AE
:1002200000802046FFF7A9FF00487047D004002057
:1002300000BFFEE77047000010B54FF4006000F00B
:1002400031F890B109480068401C08490860084628
:100250000068022801D1002008604FF4967001F078
:1002600080F84FF4006000F003F810BD0C0000208F
:1002700001490860704700001404014008B50121DD
:10028000052000F0D7F94FF40060ADF800004820D9
:100290008DF803006946024800F0C4F808BD00006C
:1002A00000080140014600200022074B1B6803EABA
:1002B0000102054B14331B680B4013B10AB1012036
:1002C00000E0002070470000000401401CB50B2135
:1002D000002000F087F84FF40060009000208DF8B7
:1002E000040008208DF8050001208DF806006846FE
:1002F00000F01AF80421084600F074F8102000906D
:1003000008208DF80500684600F00EF80421084624
:1003100000F068F81020009008208DF8050068466D
:1003200000F002F81CBD0000002123498279002A58
:100330003AD00A46126803689A430B461A600A1DAF
:10034000126803689A430B1D1A60027911440A6807
:1003500003681A430A60184A0832126803689A430D
:10036000154B08331A601A1D126803689A43124B22
:100370000C331A604279102A0ED11A1F12680368D2
:100380001A430D4B08331A601A1D126803681A438A
:10039000094B0C331A600DE00749427911440A6891
:1003A00003681A430A6005E0027911440A68036889
:1003B0009A430A60704700000004014008B54FF4FA
:1003C000A06000F01BF928208DF8000000208DF8B7
:1003D00001008DF8020001208DF80300684600F04E
:1003E000D5F808BD30B500228B071C0F0F2303FA88
:1003F00004F20B4B8C1053F824309343084C8D10AF
:1004000044F8253023468C1053F824308C07240FF1
:1004100000FA04F42343024C8D1044F8253030BD1B
:10042000080001402DE9F041024600250026002089
:1004300000230024002791F803C00CF00F0591F869
:1004400003C00CF0100CBCF1000F03D091F802C0F7
:100450004CEA050591F800C0BCF1000F31D01468DA
:1004600000202BE04FF0010C0CFA00F3B1F800C0B3
:100470000CEA03069E4220D183004FF00F0C0CFAC9
:1004800003F7BC4305FA03FC4CEA040491F803C0EB
:10049000BCF1280F06D14FF0010C0CFA00FCC2F899
:1004A00014C00AE091F803C0BCF1480F05D14FF029
:1004B000010C0CFA00FCC2F810C0401C0828D1D373
:1004C0001460B1F800C0BCF1FF0F34DD54680020A7
:1004D0002EE000F1080C4FF0010808FA0CF3B1F817
:1004E00000C00CEA03069E4221D183004FF00F0C9E
:1004F0000CFA03F7BC4305FA03FC4CEA040491F838
:1005000003C0BCF1280F05D100F1080C08FA0CF863
:10051000C2F8148091F803C0BCF1480F07D100F174
:10052000080C4FF0010808FA0CF8C2F81080401CC3
:100530000828CED35460BDE8F08141617047016165
:10054000704700BFFEE7000001464906084A92696D
:1005500042F00102064B9A61064A526822F0E062BC
:10056000044B5A601A4652680A435A6070470000AA
:10057000001002400000014000BFFEE7704710B5C8
:100580004FF4A06000F03AF810BD000070B50021F3
:1005900000230F22C47804B3154C246804F4E064EB
:1005A000C4F5E064210AC1F10403CA40447804FAA6
:1005B00003F184781440214309010E4C0678A155BB
:1005C000047804F01F050124AC4005786D11AD00DE
:1005D00005F1E025C5F8004109E0047804F01F05A5
:1005E0000124AC40044D0678761145F8264070BDD4
:1005F0000CED00E000E400E080E100E0024901438E
:10060000024A1160704700000000FA050CED00E09E
:100610007047000029B1064AD2690243044BDA61EF
:1006200004E0034AD2698243014BDA61704700005B
:100630000010024029B1064A92690243044B9A61B4
:1006400004E0034A92698243014B9A6170470000BB
:1006500000100240704710B500F002F810BD000015
:100660000CB50020019000903348006840F48030C1
:100670003149086000BF3048006800F40030009045
:100680000198401C0190009818B90198B0F5A06F2E
:10069000F1D12948006800F4003010B10120009029
:1006A00001E0002000900098012843D12348006811
:1006B00040F01000214908600846006820F003005F
:1006C00008600846006840F0020008601A48406868
:1006D000194948600846406848600846406840F448
:1006E000806048600846406820F47C1048600846F6
:1006F000406840F4E81048600846006840F08070A8
:10070000086000BF0C48006800F000700028F9D0B5
:100710000948406820F003000749486008464068DF
:1007200040F00200486000BF0348406800F00C0041
:100730000828F9D10CBD0000001002400020024042
:100740007047000010B51348006840F001001149DF
:10075000086008464068104908400E49486008464D
:1007600000680E4908400B4908600846006820F4FC
:10077000802008600846406820F4FE0048604FF47E
:100780001F008860FFF767FF4FF0006004490860B2
:1007900010BD0000001002400000FFF8FFFFF6FE51
:1007A00008ED00E02DE9F04106460C4617461D46CF
:1007B0002A2000F0C5FB711C88B200F0B1FB791C47
:1007C00088B200F0ADFB2B2000F0BAFBA0B200F025
:1007D000A7FBA8B200F0A4FB2C2000F0B1FBBDE801
:1007E000F0812DE9F04706460F46904699460025D0
:1007F000444641E07A1B91B2321B90B24A4600F067
:1008000095F87A1B91B2321990B24A4600F08EF8F0
:100810003A1991B2721B90B24A4600F087F83A1B1F
:1008200091B2721B90B24A4600F080F87A1991B2E8
:10083000321990B24A4600F079F83A1B91B2721917
:1008400090B24A4600F072F83A1991B2721990B219
:100850004A4600F06BF87A1991B2321B90B24A46C0
:1008600000F064F86D1C05FB05F004FB040108FBB7
:1008700008F0814200DD641EA542BBDDBDE8F087C3
:100880002DE9FF4F85B081468A46002003908346BC
:100890000798A0EB09050898A0EB0A06CDF8089088
:1008A000CDF804A0002D01DD012705E00DB90027DA
:1008B00002E04FF0FF376D42002E02DD4FF00108DD
:1008C00006E016B94FF0000802E04FF0FF3876421C
:1008D000B54201DD2C4600E03446002004901EE0C5
:1008E000019A91B2029A90B2129A00F01FF80398FE
:1008F00028440390B3440398A04205DD0398001BED
:100900000390029838440290A34504DDABEB040B3E
:100910000198404401900498401C80B20490611CEE
:1009200004988842DCDB09B0BDE8F08F70B504465E
:100930000D4616462B46224629462046FFF732FF33
:10094000304600F0EDFA70BD2DE9F84305460E463D
:1009500017469846089C33463A4631462846009446
:10096000FFF78EFF43462A46314628460094FFF79C
:1009700087FF43463A46414628460094FFF780FFEA
:1009800043463A46314638460094FFF779FFBDE8C2
:10099000F8832DE9F04706460F4614461D46DDF85C
:1009A00020A0681E83B2601E82B239463046FFF72F
:1009B000F9FEB8460EE0B14606E0504600F0B0FA47
:1009C00009F101001FFA80F9A145F6DB08F10100E9
:1009D0001FFA80F8A845EEDBBDE8F08708B50121D5
:1009E0000820FFF727FE4FF47C70ADF800001020C0
:1009F0008DF8030003208DF8020069460448FFF7D4
:100A000011FD4FF47C710248FFF799FD08BD00000D
:100A1000000C01402DE9F84F81460D4616461F4651
:100A2000DDF828A00020009000248046834600BF07
:100A300025E0E81983B209EB060082B205EB080055
:100A400081B24846FFF7AEFE4FF0000B11E01AF8F6
:100A50001400012101EB44011AF8011040EA0120C1
:100A60000090009800F05CFA641C0BF101001FFA82
:100A700080FBB345EBDB08F101001FFA80F8B845B5
:100A8000D7DBBDE8F88F000010B5FFF7A7FF802186
:100A90007448FFF752FD642000F063FC8021714828
:100AA000FFF74DFD642000F05CFC10216D48FFF75E
:100AB00046FD642000F055FC362000F041FA00208D
:100AC00000F037FA3A2000F03BFA052000F031FA46
:100AD000B22000F035FA0C2000F02BFA0C2000F0C8
:100AE00028FA002000F025FA332000F022FA332003
:100AF00000F01FFAB72000F023FA352000F019FAB1
:100B0000BB2000F01DFA192000F013FAC02000F0FD
:100B100017FA2C2000F00DFAC22000F011FA012083
:100B200000F007FAC32000F00BFA122000F001FADF
:100B3000C42000F005FA202000F0FBF9C62000F0E8
:100B4000FFF90F2000F0F5F9D02000F0F9F9A4200A
:100B500000F0EFF9A12000F0ECF9E02000F0F0F94E
:100B6000D02000F0E6F9042000F0E3F90D2000F0B9
:100B7000E0F9112000F0DDF9132000F0DAF92B2064
:100B800000F0D7F93F2000F0D4F9542000F0D1F95B
:100B90004C2000F0CEF9182000F0CBF90D2000F029
:100BA000C8F90B2000F0C5F91F2000F0C2F923207E
:100BB00000F0BFF9E12000F0C3F9D02000F0B9F94E
:100BC000042000F0B6F90C2000F0B3F9112000F079
:100BD000B0F9132000F0ADF92C2000F0AAF93F2065
:100BE00000F0A7F9442000F0A4F9512000F0A1F989
:100BF0002F2000F09EF91F2000F09BF91F2000F02D
:100C000098F9202000F095F9232000F092F9212096
:100C100000F096F9112000F093F9292000F090F9E6
:100C20002A2000F08DF9002000F083F9002000F068
:100C300080F9002000F07DF9EF2000F07AF92B20F8
:100C400000F07EF9002000F074F9002000F071F946
:100C5000002000F06EF9C52000F06BF92C2000F0A8
:100C60006FF910BD000C01402DE9FF5F07468A4671
:100C700090469B460F9D002002900097284605EB6A
:100C8000D071C1F347042046E21704EB5272D21030
:100C90002146E31704EB5373DB10A4EBC3030BB142
:100CA000012300E000231A446A4392B20192A8F1A2
:100CB000200000F0FF080AEB0500401E83B238193F
:100CC000401E82B251463846FFF76CFD00265DE0BB
:100CD0000C2D07D108EB48002F4901EB8000805D07
:100CE000039013E0102D05D12C4800EB0810805D17
:100CF00003900BE0182D07D108EB4800284901EBC1
:100D00000010805D039001E0BDE8FF9F4FF00009F7
:100D100036E01098C8B9012000FA09F0039908409C
:100D200018B1584600F0FCF802E00E9800F0F8F810
:100D30000298401CC0B20290029890FBF4F104FBB0
:100D40001100C8B9002002901DE0012000FA09F04E
:100D50000399084020B15A4651463846FFF7E6FD50
:100D6000781C87B20098381AA04205D1009F0AF17A
:100D700001001FFA80FA06E009F1010000F0FF0906
:100D8000B9F1080FC5DB00BF701C86B2019886421E
:100D90009EDB00BFB8E70000F81B00086C200008CD
:100DA0005C2600082DE9FF4F85B0074690461C469B
:100DB000DDE91396304606EBD071C1F3470B2149AC
:100DC000404600F04DFE039000F02AFE80B20490F1
:100DD000002531E0601B401EC1B20A2000F014FE65
:100DE0000499B1FBF0F00A21B0FBF1F201FB120A09
:100DF000A01EA84210D10020A11E01FB0B71CDE95D
:100E00000096029088B22E22129B0699FFF72CFFC3
:100E1000681CC5B2601CC4B200200AF13001CAB21D
:100E200005FB0B71CDE90096029088B2129B0699E2
:100E3000FFF71AFF681CC5B2A542CBDB09B0BDE8BD
:100E4000F08F00000000C8422DE9FF4F85B0074633
:100E500091461D46DDE913A600200490304606EBBE
:100E6000D071C1F3470B002434E0281B401EC1B2EF
:100E70000A2000F0C9FDB9FBF0F00A21B0FBF1F245
:100E800001FB12080498A0B9681EA04211DDB8F158
:100E9000000F0CD1002004FB0B71CDE900A60290DD
:100EA00088B22022129B0699FFF7DEFE10E0012097
:100EB0000490002008F13001CAB204FB0B71CDE9A7
:100EC00000A6029088B2129B0699FFF7CDFE00BFE4
:100ED000601CC4B2AC42C8DB09B0BDE8F08F2DE99C
:100EE000FE4F06460F4614469846DDE90D5ADDF8DA
:100EF000309010E0CDE9015ACDF8009022784346B9
:100F000039463046FFF7B0FE284605EBD07106EBB8
:100F100061018EB2641C20780028EBD1BDE8FE8F01
:100F200010B50446201200F01BF8E0B200F018F8EB
:100F300010BD10B50446204600F012F810BD0000A8
:100F400010B5044640210548FFF7F7FA204600F0A7
:100F500007F840210148FFF7F2FA10BD000C0140EC
:100F600070B5044620211448FFF7E7FA00251BE07E
:100F70004FF400711048FFF7E0FA04F0800028B148
:100F80004FF480710C48FFF7DAFA04E04FF48071F7
:100F90000948FFF7D2FA4FF400710748FFF7CFFA7C
:100FA0006006040E681CC5B2082DE1DB2021024852
:100FB000FFF7C5FA70BD0000000C014010B50548F0
:100FC0000088401C034908800121880700F016F8BA
:100FD00010BD00001C00002010B506480078401C21
:100FE0000449087000F0A6F80121034800F006F853
:100FF00010BD00001000002000040040CA4302821F
:10100000704721B1028842F00102028004E00288A8
:101010004FF6FE731A40028070471AB183890B4362
:10102000838102E083898B43838170478184704789
:10103000002202881D4B98420ED01D4B98420BD0C7
:10104000B0F1804F08D01B4B984205D01A4B984204
:1010500002D01A4B984204D14FF68F731A404B8836
:101060001A43174B984207D0164B984204D04FF6BC
:10107000FF431A40CB881A4302808B8883850B88F4
:1010800003850A4B98420BD0094B984208D00E4B6F
:10109000984205D00D4B984202D00D4B984201D199
:1010A0000B7A03860123838270470000002C0140E5
:1010B000003401400004004000080040000C0040E3
:1010C0000010004000140040004001400044014076
:1010D000004801407FB505460C4601210220FFF77C
:1010E00099FAADF80850ADF804400020ADF80A00B8
:1010F000ADF8060001A90E48FFF79AFF012211463C
:101100000B48FFF78AFF1D208DF8000000208DF8A6
:10111000010003208DF8020001208DF803006846CD
:10112000FFF734FA01210248FFF76BFF7FBD000093
:10113000000400400E4800783C2818DB00200C49D1
:1011400008700C480078401C0A490870084600786E
:101150003C280CDB0020087007480078401C06493A
:10116000087008460078182801DB002008707047D6
:1011700010000020140000201800002010B540F2DC
:1011800025511D4800F0BAF810B31B4800F0E0F8F4
:10119000C4B21A48008800F40040C8B91748008853
:1011A00000F4804060B10A2C03D00020134908806D
:1011B00020E01248008840F400401049088019E0FF
:1011C0000D2C06D10D48008840F480400B49088062
:1011D00010E00A480088C0F30D0009490C54074884
:1011E0000088401C0549088008460088C72801DDA2
:1011F0000020088010BD00000038014004000020DD
:101200002000002010B540F22551164800F076F875
:1012100000B3144800F09CF8C4B21348008800F4EE
:101220000040B8B910480088B0F5C87F13DA002133
:101230000E48FFF7FBFE0C48008818B901210B4847
:10124000FFF7DFFE084801880088401C064A10802E
:101250000748445405E00448008840F4004002492F
:10126000088010BD0044004006000020000400403B
:10127000E800002010B540F225511D4800F03EF86E
:1012800010B31B4800F064F8C4B21A48008800F498
:101290000040C8B91748008800F4804060B10A2CAB
:1012A00003D000201349088020E01248008840F451
:1012B00000401049088019E00D2C06D10D48008827
:1012C00040F480400B49088010E00A480088C0F3D1
:1012D0000D0009490C5407480088401C0549088046
:1012E00008460088C72801DD0020088010BD0000E6
:1012F00000480040080000200804002070B50246A5
:10130000002400230025002040F66A16B14200D1D7
:1013100000BFC1F3421501F01F03012606FA03F3D3
:10132000012D02D19689334006E0022D02D1168AA2
:10133000334001E0968A33400C12012606FA04F489
:101340001688344013B10CB1012000E0002070BDBC
:1013500001468888C0F30800704700BFFEE700BF61
:101360007047014642F228324A434FF0E0235A6167
:1013700001221A6100229A6100BF4FF0E022106939
:1013800000F001021AB100F48032002AF5D00022E8
:101390004FF0E0231A619A61704700000EB5FFF725
:1013A000D1F9FFF7ECF80220FFF7CEF80120FFF7A4
:1013B000CBF80A20FFF7D5FF41F61F4142F20F702C
:1013C000FFF788FEFEF75AFFFEF780FFFEF7F6FFF5
:1013D000FFF75AFB4FF6FF70F0231A4600210090EA
:1013E0000846FFF7D6FA4FF47A70FFF7BAFF0020ED
:1013F000F0231A4601460090FFF7CBFA4FF47A70BB
:10140000FFF7AFFF1F20F0231A4600210090084687
:10141000FFF7BFFA4FF47A70FFF7A3FF4FF478405D
:10142000F0231A46002100900846FFF7B2FA4FF465
:101430007A70FFF796FF4FF4FC60F0231A46002104
:1014400000900846FFF7A5FA4FF47A70FFF789FF7E
:10145000CDE200BFFE49086800EBD0714910A0EB57
:1014600041010029F6D04FF6FF70F0231A46002103
:1014700000900846FFF78DFA4FF47A70FFF771FF7E
:1014800000BFF349086800EBD0714910A0EB41019F
:101490000029F6D00020F0231A4601460090FFF7FD
:1014A00078FA4FF47A70FFF75CFF00BFE8490868EC
:1014B00000EBD0714910A0EB41010029F6D01F20AC
:1014C000F0231A46002100900846FFF762FA4FF415
:1014D0007A70FFF746FF00BFDD49086800EBD07166
:1014E0004910A0EB41010029F6D04FF47840F023D9
:1014F0001A46002100900846FFF74BFA4FF47A7025
:10150000FFF72FFF00BFD249086800EBD0714910E8
:10151000A0EB41010029F6D04FF4FC60F0231A46FD
:10152000002100900846FFF734FA4FF47A70FFF775
:1015300018FF00BFC649086800EBD0714910A0EB46
:1015400041010029F6D01F203C231A4600210090BB
:101550000846FFF795F94FF47A70FFF702FF00BFD6
:10156000BB49086800EBD0714910A0EB410100298C
:10157000F6D04FF4FC60F0231A4600210090084694
:10158000FFF707FA4FF47A70FFF7EBFE00BFB049A0
:10159000086800EBD0714910A0EB41010029F6D09A
:1015A0004FF4784032231A46142100900A20FFF7A6
:1015B000CBF94FF47A70FFF7D4FE00BFA449086856
:1015C00000EBD0714910A0EB41010029F6D04FF497
:1015D000FC60F0231A46002100900846FFF7D9F975
:1015E0004FF47A70FFF7BDFE00BF9949086800EB21
:1015F000D0714910A0EB41010029F6D0002314223C
:101600001E210846FFF7EDF84FF47A70FFF7A9FEA8
:1016100000BF8F49086800EBD0714910A0EB410171
:101620000029F6D04FF4FC60F0231A460021009008
:101630000846FFF7AEF94FF47A70FFF792FE00BF4D
:101640008349086800EBD0714910A0EB41010029E3
:10165000F6D0002018214FF478420346CDE900214E
:10166000029061220146FFF7FFFA4FF47A70FFF70C
:1016700078FE00BF7649086800EBD0714910A0EBF6
:1016800041010029F6D04FF4FC60F0231A460021F6
:1016900000900846FFF77DF94FF47A70FFF761FE7E
:1016A00000BF6B49086800EBD0714910A0EB410105
:1016B0000029F6D0002010214FF478420346CDE9EE
:1016C0000021029063A20146FFF709FC4FF47A70F3
:1016D000FFF747FE00BF5E49086800EBD071491074
:1016E000A0EB41010029F6D04FF4FC60F0231A462C
:1016F000002100900846FFF74CF94FF47A70FFF78D
:1017000030FE00BF5249086800EBD0714910A0EBD1
:1017100041010029F6D018204FF4FC614FF47842C3
:101720000223CDE9002102900D2200210846FFF797
:101730008BFB4FF47A70FFF714FE00BF4449086832
:1017400000EBD0714910A0EB41010029F6D04FF415
:10175000FC60F0231A46002100900846FFF719F9B3
:101760004FF47A70FFF7FDFD00BF3949086800EBC0
:10177000D0714910A0EB41010029F6D018200021BA
:101780001F220423CDE900210290354A0321084697
:10179000FFF708FB4FF47A70FFF7E3FD00BF2C4919
:1017A000086800EBD0714910A0EB41010029F6D088
:1017B0004FF4FC60F0231A46002100900846FFF722
:1017C000E8F84FF47A70FFF7CCFD00BF20490868B5
:1017D00000EBD0714910A0EB41010029F6D04FF485
:1017E000FC60F0231A46002100900846FFF7D1F86C
:1017F0004FF47A70FFF7B5FD00BF1549086800EB9C
:10180000D0714910A0EB41010029F6D015482823DA
:101810001A460A2100900846FFF7FCF84FF47A7048
:10182000FFF79FFD00BF0A49086800EBD07149101F
:10183000A0EB41010029F6D04FF4FC60F0231A46DA
:10184000002100900846FFF7A4F84FF47A700BE0EF
:101850000C00002069206C6F766520796F750000A0
:10186000A4704541AC440008FFF77BFD00BF604910
:10187000086800EBD0714910A0EB41010029F6D0B7
:10188000B3E000200C214FF4FC620346CDE90021B7
:10189000029058A20146FFF722FB584800680A212F
:1018A00090FBF1F084B20C204FF4FC614FF47842CD
:1018B0000123CDE90021029022460F210020FFF7ED
:1018C000C3FA4E4800680A2190FBF1F201FB1200B6
:1018D00084B20C204FF4FC614FF478420123CDE92F
:1018E0000021029022460F210620FFF7ADFA0020CA
:1018F0000C214FF4FC624FF47843CDE900210290B3
:101900003A220F210C20FFF7AFF93D4800680A2169
:1019100090FBF1F084B20C204FF4FC614FF478425C
:101920000123CDE90021029022460F211220FFF76A
:101930008BFA334800680A2190FBF1F201FB120098
:1019400084B20C204FF4FC614FF478420123CDE9BE
:101950000021029022460F211820FFF775FA00207F
:101960000C214FF4FC624FF47843CDE90021029042
:101970003A220F211E20FFF777F9224800680A213A
:1019800090FBF1F084B20C204FF4FC614FF47842EC
:101990000123CDE90021029022460F212420FFF7E8
:1019A00053FA184800680A2190FBF1F201FB12007B
:1019B00084B20C204FF4FC614FF478420123CDE94E
:1019C0000021029022460F212A20FFF73DFA0D4800
:1019D0000068142809D137200A4908603B200849CB
:1019E000086017200549086000E04AE700BF30E5BD
:1019F0000C00002074696D653A000000180000209A
:101A0000140000201000002010B50246012000E064
:101A100050430B00A1F10104E1B2F9D110BD000067
:101A2000C10DD1F19E0206DB4FEA002343F00043D3
:101A300023FA02F07047004207D54FEA4001B1F1A6
:101A4000FE4F02D24FF00000704710B500F089F849
:101A500049922480002070476FEA20007047000000
:101A60004FF47F0C1CEAD0121EBF1CEAD11392EA7D
:101A70000C0F93EA0C0F00F0478090EA010F48BF6B
:101A800042F480724FF0004C4CEA00204CEA0121F5
:101A900002EB0302A0FB0113A2F50002002918BF0C
:101AA00043F001035B0028BF4FEA330342EB2242BD
:101AB0005FEA132C4CEBC2502EBFBCEB436FB2F568
:101AC0007C0F70474FEA036CBCF1004F08BF20F059
:101AD0000100B2F57C0F38BF70470BD582F0FF02D2
:101AE00012F5803FC8BF704700F1C040D8BF00F07A
:101AF0000040704700F5000C5FEA4C0C48BF70478F
:101B0000B0F1C04000F073B890EA010F0CEAD113B5
:101B100048BF42F48072624538BF634504D280EA10
:101B2000010000F00040704710B500F01AF800BF47
:101B30008900013E00F007B800F009B85FEA410CE7
:101B40005FEA1C6C08D080EA010000F050B85FEA40
:101B5000400C5FEA1C6CF6D14FF00040A0F580000D
:101B600070470EF1020E2EF0030E5EF8044B244275
:101B700004D44FEA4102B2F17F4F11D84FEA40033B
:101B8000B3F17F4F0CD80ED14FEAD07CB2F17F4F2A
:101B90000CEB4C0C0CF1020C08BF4CEBD17C04E0BC
:101BA0004FF0080C01E04FEAD17C0CEB4C0324FA17
:101BB00003F404F00704B4F1040C06D20EEB840C19
:101BC000BDE810404CF0010C6047DFE80CF007085E
:101BD00002024FF00040A0F5800010BD0846420010
:101BE00018BFD2F1807288BF00F0004010BDFF2105
:101BF00041EAD050C005704700000000000000001E
:101C000000000000000004040404040000040000BC
:101C100014140A00000000000000000000000A0A7E
:101C20001F0A0A1F0A0A000000040E1505060C14FC
:101C3000150E0400000012150D152E2C2A1200009E
:101C40000000040A0A3615152916000002020100D8
:101C50000000000000000000100808040404040450
:101C60000808100002040408080808080404020018
:101C700000000004150E0E1504000000000000080E
:101C8000083E0808000000000000000000000000FE
:101C90000202010000000000003F00000000000000
:101CA00000000000000000000002000000201010F2
:101CB000080804040202010000000E1111111111A4
:101CC000110E00000000040604040404040E0000C9
:101CD00000000E1111080402011F000000000E1187
:101CE000100C1010110E00000000080C0C0A091F47
:101CF000081C000000001F01010F1110110E000050
:101D000000000C12010D1311110E000000001E1036
:101D1000080804040404000000000E11110E111143
:101D2000110E000000000E11111916100906000016
:101D3000000000000400000000040000000000009B
:101D40000004000000040400000010080402020463
:101D500008100000000000003F003F0000000000ED
:101D600000000204081010080402000000000E1118
:101D7000110804040004000000001C22292D2D1D60
:101D8000221C0000000004040C0A0A1E123300008A
:101D900000000F12120E1212120F000000001E118E
:101DA00001010101110E000000000F1212121212A7
:101DB000120F000000001F120A0E0A02121F00007C
:101DC00000001F120A0E0A020207000000001C1287
:101DD00001013911120C000000003312121E121200
:101DE0001233000000001F0404040404041F000058
:101DF00000003E0808080808080809070000371214
:101E00000A060A121237000000000702020202024C
:101E1000223F000000003B1B1B1B15151535000061
:101E200000003B1216161A1A1217000000000E11BD
:101E300011111111110E000000000F12120E0202FA
:101E40000207000000000E1111111117190E1800E1
:101E500000000F12120E0A121237000000001E11AD
:101E600001060810110F000000001F1504040404EF
:101E7000040E00000000331212121212120C0000A5
:101E800000003312120A0A0C0404000000001515A9
:101E900015150E0A0A0A000000001B0A0A04040AAB
:101EA0000A1B000000001B0A0A0A0404040E0000BA
:101EB00000001F0908040402121F00001C0404048F
:101EC0000404040404041C000002020404040808BE
:101ED000081010000E0808080808080808080E0076
:101EE000040A0000000000000000000000000000E4
:101EF000000000000000003F02040000000000009D
:101F00000000000000000000000C121C123C000049
:101F100000030202020E1212120E00000000000066
:101F2000001C1202120C000000181010101C1212DB
:101F3000123C000000000000000C121E021C0000F9
:101F400000182404041E0404041E00000000000005
:101F5000003C120C021C221C00030202020E121290
:101F6000123700000004040000060404040E000000
:101F700000080800000C080808080807000302020F
:101F8000021A0A060A1300000007040404040404E9
:101F9000041F000000000000000F151515150000BB
:101FA00000000000000F12121237000000000000B5
:101FB000000C1212120C000000000000000F1212A0
:101FC000120E020700000000001C1212121C103832
:101FD00000000000001B06020207000000000000D5
:101FE000001E020C101E000000000004041E040469
:101FF000041C000000000000001B1212123C000034
:1020000000000000001B0A0A040400000000000099
:102010000015150E0A0A000000000000001B0A044B
:102020000A1B000000000000003312120C08040319
:1020300000000000001E0804041E00001808080824
:10204000080C080808081800080808080808080804
:10205000080808080604040404080404040406002C
:102060001609000000000000000000000000000051
:102070000000000000000000000000000000000858
:1020800008080808080800001818000000486C2418
:10209000120000000000000000000000000000240A
:1020A00024247F1212127F12121200000000081C5A
:1020B0002A2A0A0C1828282A2A1C080800000022AC
:1020C000251515152A585454542200000000000C00
:1020D0001212120A76252911916E000000060604DC
:1020E000030000000000000000000000004020107D
:1020F0001008080808080810102040000002040812
:102100000810101010101008080402000000000051
:1021100008086B1C1C6B0808000000000000000091
:10212000080808087F0808080800000000000000F0
:10213000000000000000000006060403000000008C
:1021400000000000FE000000000000000000000091
:1021500000000000000000000606000000008040B3
:10216000402020101008080404020200000000189B
:102170002442424242424242241800000000000829
:102180000E08080808080808083E00000000003C87
:102190004242422020100804427E00000000003C21
:1021A0004242201820404042221C00000000002033
:1021B0003028242422227E20207800000000007E87
:1021C0000202021A26404042221C00000000003891
:1021D0002402021A26424242241800000000007E17
:1021E0002222101008080808080800000000003C1F
:1021F0004242422418244242423C0000000000189F
:102200002442424264584040241C00000000000068
:10221000000018180000000018180000000000005E
:102220000000000800000000000808040000004052
:1022300020100804020408102040000000000000E4
:1022400000007F0000007F0000000000000000028E
:102250000408102040201008040200000000003C88
:102260004242464020101000181800000000001CD8
:10227000225A555555552D42221C000000000008D9
:1022800008181414243C224242E700000000001FFA
:102290002222221E22424242221F00000000007C15
:1022A0004242010101010142221C00000000001F06
:1022B0002242424242424242221F00000000003FAE
:1022C0004212121E12120242423F00000000003F62
:1022D0004212121E12120202020700000000003C0D
:1022E0002222010101712122221C0000000000E7CE
:1022F000424242427E42424242E700000000003E2B
:102300000808080808080808083E00000000007CCB
:1023100010101010101010101010110F0000007786
:1023200022120A0E0A121222227700000000000771
:102330000202020202020202427F00000000007755
:10234000363636362A2A2A2A2A6B0000000000E395
:1023500046464A4A52525262624700000000001C40
:102360002241414141414141221C00000000003F07
:10237000424242423E020202020700000000001CEC
:102380002241414141414D53321C60000000003F59
:102390004242423E1212222242C700000000007C4C
:1023A0004242020418204042423E00000000007FEA
:1023B0004908080808080808081C0000000000E791
:1023C0004242424242424242423C0000000000E798
:1023D0004242222424141418080800000000006B54
:1023E000494949495555362222220000000000E79C
:1023F000422424181818242442E700000000007723
:102400002222141408080808081C00000000007E9E
:102410002120101008040442423F00000078080800
:1024200008080808080808080808780000000202E0
:10243000040408080810102020204040001E10103E
:10244000101010101010101010101E000038440052
:10245000000000000000000000000000000000007C
:102460000000000000000000000000FF000608005F
:10247000000000000000000000000000000000005C
:102480000000003C4278444242FC0000000000038F
:102490000202021A26424242261A000000000000F0
:1024A00000000038440202024438000000000060CE
:1024B000404040784442424264D80000000000009E
:1024C0000000003C427E0202423C0000000000F09E
:1024D0008808087E08080808083E00000000000080
:1024E0000000007C22221C023C42423C000000030F
:1024F0000202023A4642424242E700000000000C5B
:102500000C00000E08080808083E0000000000301B
:1025100030000038202020202020221E0000000350
:1025200002020272120A1612227700000000000E48
:102530000808080808080808083E00000000000015
:102540000000007F9292929292B70000000000007B
:102550000000003B4642424242E70000000000000B
:102560000000003C42424242423C000000000000A9
:102570000000001B26424242221E0207000000000B
:102580000000007844424242447840E000000000ED
:10259000000000774C040404041F00000000000049
:1025A0000000007C42023C40423E0000000000006F
:1025B0000008083E08080808083000000000000075
:1025C000000000634242424262DC00000000000062
:1025D000000000E742242414080800000000000066
:1025E000000000EB49495555222200000000000080
:1025F0000000007624181818246E00000000000067
:10260000000000E742242414180808070000000016
:102610000000007E22100808447E000000C0202038
:1026200020202010202020202020C000101010107A
:1026300010101010101010101010101000060808C4
:102640000808081008080808080806000C32C2002C
:10265000000000000000000000000000000000007A
:10266000000000000000000000000000000000006A
:10267000000000000000000000000000000000005A
:10268000000000000000000000000000000000004A
:1026900000000000600060006000600060006000FA
:1026A000600040002000200020000000000000002A
:1026B00060006000600000000000000000000000FA
:1026C00060066006300398018800440000000000A6
:1026D00000000000000000000000000000000000FA
:1026E00000000000000000000000000000000000EA
:1026F000000000001002100210021002FE07FE0788
:1027000008020801080108010801FE07FE0704018C
:1027100004010401040100000000000000000000AA
:10272000000040004000F00158034C03CC034C0073
:1027300058007000E000C001C00140034C035C037E
:102740004C034801F0004000400000000000000081
:10275000000000000E010A0191009100910051005B
:1027600051003A00AE03A00250045004480448044B
:102770004804840284030000000000000000000000
:102780000000000038006C006C006C006C006C00F5
:102790002C0098071C011A01330133016301E30087
:1027A000C308C6093C07000000000000000000004C
:1027B0000C001C00100010000800040000000000C5
:1027C0000000000000000000000000000000000009
:1027D00000000000000000000000000000000000F9
:1027E0000004000200018000800040004000200042
:1027F0002000200020002000200020004000400099
:1028000080008000000100020004000000000000C1
:10281000020004000800100010002000200040000A
:1028200040004000400040004000400020002000E8
:10283000100010000800040002000000000000006A
:1028400000000000000000004000C0004000460CF6
:102850004E0FD001F0015E0F460C400040004000DA
:102860000000000000000000000000000000000068
:102870000000000000000000000040004000400098
:1028800040004000FE0F400040004000400040007B
:102890000000000000000000000000000000000038
:1028A0000000000000000000000000000000000028
:1028B0000000000000000000000000000000000018
:1028C0000C001C00100010000800040000000000B4
:1028D00000000000000000000000000000000000F8
:1028E00000000000FE0700000000000000000000E3
:1028F00000000000000000000000000000000000D8
:1029000000000000000000000000000000000000C7
:1029100000000000000000000000000000000000B7
:102920001C001C001C000000000000000000000053
:102930000004000600020003000100018000800086
:10294000400040006000200020001000100008003F
:1029500008000C0004000600020000000000000057
:10296000000000000000F00098010C030C030606B4
:1029700006060606060606060606060606060C03F4
:102980000C039801F00000000000000000000000AF
:1029900000000000000040007C006000600060005B
:1029A0006000600060006000600060006000600027
:1029B00060006000FC030000000000000000000058
:1029C000000000000000F800840102030603060373
:1029D000000300018001C000600020001000080218
:1029E00004020602FE0300000000000000000000D8
:1029F0000000000000007800C6008601860180010A
:102A00008001C00070008001000100030003060384
:102A100006038601F800000000000000000000002E
:102A200000000000000080018001C001A001A001A1
:102A300090018801880184018201FE0F80018001DC
:102A400080018001E007000000000000000000009D
:102A5000000000000000FC03040004000400040067
:102A60000400F4008C0104030003000306030603C2
:102A700082018401F8000000000000000000000056
:102A8000000000000000E00118030C030C0004002B
:102A90000600E60116030E060606060606060406EE
:102AA0000C021803F000000000000000000000000D
:102AB000000000000000F8070C06040204010001F9
:102AC0000001800080004000400040006000600085
:102AD00060006000600000000000000000000000D6
:102AE000000000000000F8010C03060606060606BA
:102AF0000C021C03F000C8010C03060606060606BD
:102B000006060C03F00100000000000000000000B9
:102B1000000000000000F0000C010C030602060695
:102B20000606060606078C06780600060003000364
:102B30000C018C0178000000000000000000000083
:102B40000000000000000000000000000000000085
:102B5000E000E000E00000000000000000000000D5
:102B6000E000E000E00000000000000000000000C5
:102B70000000000000000000000000000000000055
:102B80006000600000000000000000000000000085
:102B900000006000600040002000200000000000F5
:102BA000000000000004000200018000400020003E
:102BB0001000080004000800100020004000800001
:102BC00000010002000400000000000000000000FE
:102BD00000000000000000000000000000000000F5
:102BE000FE07000000000000FE07000000000000DB
:102BF00000000000000000000000000000000000D5
:102C000000000000040008001000200040008000C8
:102C100000010002000400020001800040002000CA
:102C20001000080004000000000000000000000088
:102C3000000000000000E0031806040C040C0C0C5B
:102C40000C0C000780014000400040000000000024
:102C5000E000E000E00000000000000000000000D4
:102C600000000000E00018030C02CC0564056605B6
:102C7000A605B604B604B604B604B602E4010C0414
:102C80000C021803F000000000000000000000002B
:102C9000000000000000600060005000D0009000C4
:102CA0009000880088010801F8010403040304026D
:102CB000020202060F0F00000000000000000000EA
:102CC000000000000000FE008C030C030C030C034A
:102CD0000C038C01FC000C030C020C060C060C0609
:102CE0000C060C03FE0100000000000000000000C4
:102CF000000000000000E00318030C060C040404AC
:102D000006000600060006000600060006040C0485
:102D10000C021803F000000000000000000000009A
:102D20000000000000007F008C010C030C030C0667
:102D30000C060C060C060C060C060C060C060C0306
:102D40000C038C017F000000000000000000000068
:102D5000000000000000FF0306030604060406004E
:102D600086008600FE0086008600860006000604B7
:102D700006040602FF03000000000000000000003F
:102D8000000000000000FF0306030604060406001E
:102D900086008600FE00860086008600060006008B
:102DA000060006001F0000000000000000000000F8
:102DB000000000000000F00018010C020C020402E8
:102DC0000600060006000600C60F060306030C03F5
:102DD0000C031803F00000000000000000000000D9
:102DE0000000000000000F0F060606060606060695
:102DF00006060606FE07060606060606060606067A
:102E0000060606060F0F000000000000000000008C
:102E1000000000000000FC03600060006000600033
:102E200060006000600060006000600060006000A2
:102E300060006000FC0300000000000000000000D3
:102E4000000000000000F807C000C000C000C00083
:102E5000C000C000C000C000C000C000C000C00072
:102E6000C000C000C000C60066003C0000000000BA
:102E7000000000000000CF038601C60046002600C7
:102E8000160036002E006E004600C6008600860141
:102E9000060106038F07000000000000000000008C
:102EA0000000000000001F000600060006000600EB
:102EB00006000600060006000600060006000604DE
:102EC00006040602FF0300000000000000000000EE
:102ED0000000000000000707860386038E038E03B0
:102EE0004E034E034A035A035A033A033203320392
:102EF00032031203870700000000000000000000FA
:102F00000000000000008E0F0C021C021C023402A4
:102F10003402640264024402C4028402840384030F
:102F2000040304031F020000000000000000000072
:102F3000000000000000F00098010C030C020606DF
:102F400006060606060606060606060606060C021F
:102F50000C039801F00000000000000000000000D9
:102F6000000000000000FF00060306060606060635
:102F7000060606068603FE0006000600060006009A
:102F8000060006001F000000000000000000000016
:102F9000000000000000F00098010C030C0206067F
:102FA00006060606060606060606060676064C020F
:102FB000CC039801F000800700030000000000002F
:102FC000000000000000FF010603060606060606D4
:102FD00006060603FE004600C600860086010603BC
:102FE000060306060F0E00000000000000000000AF
:102FF000000000000000F8020C03060206020600B2
:103000000E003C00F800E003800300070206020601
:1030100006060C03F00100000000000000000000A4
:10302000000000000000FE07620461086108600003
:103030006000600060006000600060006000600090
:1030400060006000F80100000000000000000000C7
:103050000000000000001E070C020C020C020C0213
:103060000C020C020C020C020C020C020C020C02F0
:103070000C021801F0000000000000000000000039
:103080000000000000000F070602040104010C010B
:103090000C018800880098009800500050007000D3
:1030A00030002000200000000000000000000000B0
:1030B000000000000000F70E6204420446044604CB
:1030C00064026402E402E4029C029C0198019801FB
:1030D0008801880088000000000000000000000057
:1030E0000000000000009E070C010801180190007C
:1030F000B0006000200060006000D00090008801F7
:10310000080104038E07000000000000000000001A
:103110000000000000000F0F060404020C0208016A
:103120001801B800B000700060006000600060002E
:1031300060006000F80100000000000000000000D6
:10314000000000000000FC070C02060302018001E1
:1031500080004000400020002000100018000804FB
:103160000C040402FE030000000000000000000048
:10317000E00320002000200020002000200020008C
:10318000200020002000200020002000200020003F
:103190002000200020002000E003000000000000CC
:1031A00000000000040004000800080010001000E7
:1031B00010002000200040004000C000800080007F
:1031C00000010001000200020002000400000000F3
:1031D0007C004000400040004000400040004000B3
:1031E00040004000400040004000400040004000DF
:1031F00040004000400040007C00000000006000F3
:103200009000080100000000000000000000000025
:1032100000000000000000000000000000000000AE
:10322000000000000000000000000000000000009E
:10323000000000000000000000000000000000008E
:10324000000000000000000000000000000000007E
:1032500000000000000000000000FF0F0000000060
:1032600018006000000000000000000000000000E6
:10327000000000000000000000000000000000004E
:10328000000000000000000000000000000000003E
:10329000000000000000000000000000000000002E
:1032A000F0010C030C030003E0031C030E030603F0
:1032B00006038E0B7C0E00000000000000000000E2
:1032C0000000000008000E000C000C000C000C00B8
:1032D000CC013C031C060C060C060C060C060C0666
:1032E0000C021C03E40100000000000000000000CC
:1032F00000000000000000000000000000000000CE
:10330000F0008C018C018601060006000600060212
:103310000C020C01F00000000000000000000000A2
:10332000000000000002C0030003000300030003CC
:1033300078038C030C030603060306030603060347
:1033400004038C077801000000000000000000006A
:10335000000000000000000000000000000000006D
:10336000E001180308020C060C06FC070C000C0018
:1033700018041802E0010000000000000000000036
:10338000000000000000C00360063006300030007E
:10339000FE013000300030003000300030003000DE
:1033A00030003000FC0100000000000000000000C0
:1033B000000000000000000000000000000000000D
:1033C000F007D8068C018C018C019801F8000C00E4
:1033D000FC00CC03060306038E03F8000000000087
:1033E0000000000008000E000C000C000C000C0097
:1033F000EC011C030C030C030C030C030C030C0367
:103400000C030C039E0700000000000000000000F9
:1034100000000000000060006000000000004000AC
:103420007C00600060006000600060006000600080
:1034300060006000FC0300000000000000000000CD
:10344000000000000000C001C001000000000001F9
:10345000F0018001800180018001800180018001F4
:103460008001800180018001CC007C000000000010
:103470000000000008000E000C000C000C000C0006
:103480008C038C008C004C006C005C008C008C0168
:103490000C010C039E07000000000000000000006B
:1034A0000000000040007C006000600060006000E0
:1034B000600060006000600060006000600060000C
:1034C00060006000FC03000000000000000000003D
:1034D00000000000000000000000000000000000EC
:1034E0003707EE0666066606660666066606660622
:1034F00066066606FF0F00000000000000000000E6
:1035000000000000000000000000000000000000BB
:10351000EE011C030C030C030C030C030C030C0343
:103520000C030C039E0700000000000000000000D8
:10353000000000000000000000000000000000008B
:10354000F00098010C0306060606060606060606A7
:103550000C030C03F000000000000000000000005D
:10356000000000000000000000000000000000005B
:10357000EE011C030C060C060C060C060C060C06D1
:103580000C031C03EC010C000C003E0000000000CA
:10359000000000000000000000000000000000002B
:1035A00078028C030C0306030603060306030603D6
:1035B00004038C03780300030003C007000000002D
:1035C00000000000000000000000000000000000FB
:1035D0009F03580638061800180018001800180035
:1035E00018001800FF0000000000000000000000AC
:1035F00000000000000000000000000000000000CB
:10360000F0031C030C020C023800F000C00304039A
:1036100004038C03FC010000000000000000000017
:1036200000000000000000002000200030003000FA
:10363000FE0130003000300030003000300030003B
:1036400030023002E0010000000000000000000035
:103650000000000000000000000000000000080260
:103660008E030C030C030C030C030C030C030C0360
:103670000C039C077801000000000000000000001F
:10368000000000000000000000000000000000003A
:103690001E070C020801080118019000B000B000DC
:1036A000600060002000000000000000000000003A
:1036B000000000000000000000000000000000000A
:1036C000F70E6204460464026402EC029C01980155
:1036D00098019801080000000000000000000000B0
:1036E00000000000000000000000000000000000DA
:1036F000BC0718011001B00060006000E0009000FD
:10370000080108039E070000000000000000000000
:1037100000000000000000000000000000000000A9
:103720009E0708010801080190009000B0006000A9
:10373000600060002000200024001C000000000049
:103740000000000000000000000000000000000079
:10375000FC018401C4004400600020003000180215
:1037600008020C03FC010000000000000000000043
:1037700000038000800080008000800080008000C6
:103780008000400020004000800080008000800019
:1037900080008000800080000003000040004000A6
:1037A0004000400040004000400040004000400019
:1037B0004000400040004000400040004000400009
:1037C0004000400040004000400040000000000079
:1037D0000C0010001000100010001000100010006D
:1037E0001000200040002000100010001000100009
:1037F00010001000100010000C00000000001C0061
:103800002204C20480030000000000000000000049
:1038100000000000000000000000000000000000A8
:10382000000000000000000000000000FFFFFFFF9C
:10383000FFFFFFFFFFFFFFFFFFFFFFFFFFFFFFFF98
:10384000FFFFFFFFFFFFFFFFFFFFF7BEFFFFFFDEF2
:10385000C6388C926B8E6B6E7C10AD96E73CFFFF8A
:10386000FFFFFFFFFFFFFFFFFFFFFFFFFFFFFFFF68
:10387000FFFFFFFFFFFFFFFFFFFFFFFFFFFFFFFF58
:10388000FFFFFFFFFFFFFFFFFFFFFFFFFFFFFFFF48
:10389000FFFFFFFFFFFFFFFFFFFFEF5D9D15634F82
:1038A000426C320A298819461925214531E86B8E68
:1038B000C638FFFFFFFFFFFFFFFFFFFFFFFFFFFF18
:1038C000FFFFFFFFFFFFFFFFFFFFFFFFFFFFFFFF08
:1038D000FFFFFFFFFFFFFFFFFFFFFFFFFFFFFFFFF8
:1038E000FFFFFFFFFFFFFFFFA53653104B105351A3
:1038F0004B0F3A6C31E92167192510E408A30062E7
:10390000088352CBD69AFFFFFFFFFFFFFFFFFFFFA9
:10391000FFFFFFFFFFFFFFFFFFFFFFFFFFFFFFFFB7
:10392000FFFFFFFFFFFFFFFFFFFFFFFFFFFFFFFFA7
:10393000FFFFFFFFE73C637063B37CB863F543119F
:10394000324D29EA21881926190519051104110497
:1039500010E4008308A38C72FFFFFFFFFFFFFFFF4F
:10396000FFFFFFFFFFFFFFFFFFFFFFFFFFFFFFFF67
:10397000FFFFFFFFFFFFFFFFFFFFFFFFFFFFFFFF57
:10398000FFFFDEDB3A4B42F06C354B5432B12A2E4E
:1039900021EB21A91967190511041104110411045F
:1039A0001104190510E4004273AFFFFFFFFFFFFF92
:1039B000FFFFFFFFFFFFFFFFFFFFFFFFFFFFFFFF17
:1039C000FFFFFFFFFFFFFFFFFFFFFFFFFFFFFFFF07
:1039D000EF5D3209324C4B10328F2A4F2A2E19CC10
:1039E00019892189194719051104110410C410C43B
:1039F00011041104110410E400428431FFFFFFFFA1
:103A0000FFFFFFFFFFFFFFFFFFFFFFFFFFFFFFFFC6
:103A1000FFFFFFFFFFFFFFFFFFFFFFFFFFFFFFFFB6
:103A200052EC1947324C2A0B21EC21EC220C5B9111
:103A30004AEE11061926190410E410E429A721669C
:103A400008A319051104110410E40082BDF7FFFF5B
:103A5000FFFFFFFFFFFFFFFFFFFFFFFFFFFFFFFF76
:103A6000FFFFFFFFFFFFFFFFFFFFFFFFFFFFA5358A
:103A7000088321882188218921AA218A426B8C719F
:103A8000FFFF8C720883110408C44229DEFBEF5D3E
:103A90005AEC0883110411041104088331E8FFDF94
:103AA000FFFFFFFFFFFFFFFFFFFFFFFFFFFFFFFF26
:103AB000FFFFFFFFFFFFFFFFFFFFFFFFF7BE31C765
:103AC00010C4192519261947194729A8528A4A28C6
:103AD000AD55FFFF31E808A319056B4D6B4DFFFF96
:103AE000EF7D214510C41104110411040062AD766C
:103AF000FFFFFFFFFFFFFFFFFFFFFFFFFFFFFFFFD6
:103B0000FFFFFFFFFFFFFFFFFFFFFFFFB596006214
:103B1000110419041105190508C44A8BB5B6EF5DE7
:103B2000BDF7FFFF6B8E006242295AAA4208FFFFD1
:103B3000FFFF52CC088311041104110408A352ADF5
:103B4000FFFFFFFFFFFFFFFFFFFFFFFFFFFFFFFF85
:103B5000FFFFE71CFFFFFFFFFFFFFFFF634E006259
:103B600011041104110410E40062638EFFFFFFFFD3
:103B7000FFFFFFFF73CF00019CF3632CB596FFFF9F
:103B8000FFFF5B2D008311041104110410E4216771
:103B9000EF3DFFFFFFFFFFFFFFFFFFFFBDF8B5B7E2
:103BA000EF9E52CB94B3FFFFFFFFFFDF31E808A386
:103BB000110411041104110408A34249F7FFF7FF8F
:103BC000FFFFFFFF4A6A00018472FFFFFFFFF7FF5C
:103BD000EFDF3A0908A311041104110411041105BF
:103BE000BE18FFFFFFFFFFFFFFFFFFFF7BF000623C
:103BF00031E831C70041A535FFFFEF5D214610C414
:103C0000110411041104110410E408A39D76F7FFB8
:103C1000FFFFADB708A308A331C7E79EF7FFF7FF83
:103C2000A57608A310E4110411041104110511056F
:103C3000A535FFFFFFFFFFFFFFFFFFFFDEDB29A72B
:103C4000008310C410C410C4E71CEF9E110510E4DB
:103C50001104110411041104190408C410E56BD1F6
:103C60006BD108C5006408A50043322B9D7784B34F
:103C7000192510C411041104110411041925092671
:103C80009D35FFFFFFFFFFFFFFFFFFFFFFFF73AF4C
:103C900000621904190500825B0D9B8E10621105EC
:103CA00011041104190410E40085110539C45A8166
:103CB0007B409C22AC43A4039B837282498218C23E
:103CC00000A400C510E4190411041905194711676F
:103CD0005AECFFBEFFFFFFFFFFFFFFFFFFDFDEDB52
:103CE00010C410E41104110518A4C001888300E475
:103CF0001905190408C521448343D523FE42FEE477
:103D0000FF27FF07FEA4FE64FE03FDA3FCE2EC42D6
:103D1000B383622410E508C41904192619A8218761
:103D20009000BCD3FFFFFFFFFFFFFFFFFFDFFFFFA0
:103D30007C100042190511052883D001F84448A3DE
:103D400000E408C55A44ED02FDE2FE02FE66FF747F
:103D5000FFB8FF73F6E7F6A6F645F5A4FCC3FC62D0
:103D6000FCC2FCC2CBE349C411061988018790A4A8
:103D7000F8019AECFFFFFFFFFFFFFFFFFFFFFFFFD0
:103D8000F7BE31E8008309054082C001F823F085C1
:103D900048A300A45A44FD02CC23DCC2FE04FE2842
:103DA000F648F646F624F5E4FD64FCE3FC62FCC24A
:103DB000E402DC02FCE27AA40148016778C4F8243A
:103DC000F802B084E77DFFFFFFFFFFFFFFFFFFFF6B
:103DD000FFFFDEDB192500A338C4E002D822F84437
:103DE000F8A678A400632143728339839B82F5216E
:103DF000FD61FD22FCE2FCA2FC42FC42FC42AB2243
:103E0000418392C352040126192598A4F844F8234B
:103E1000F802D0A4EF9EFFFFFFFFFFFFFFFFFFFFB1
:103E2000FFFFFFFFD69A298700A5B843F822E023B9
:103E3000F865F8E8C9074883004200A300842963B5
:103E40007AA2B362CBA2D362BB028A82398300A476
:103E500000E500E508E560C4D864F844F824F823D8
:103E6000F8028883C6DBFFFFFFFFFFFFFFFFFFFFB6
:103E7000FFFFFFFFFFFFE73D5B503108E823F843FA
:103E8000F044F865F909F9ABD189890648A31842CD
:103E9000000200420061008200620062008320A3F1
:103EA00050C488A5D885F865F844F844F823F82369
:103EB000D003108229C7EF5DFFFFFFFFFFFFFFFF69
:103EC000FFFFFFFFFFFFFFFFFFFF326C38A5D802A7
:103ED000F823F865F866F8A7F94AFA0CFA4DEA4CA7
:103EE000D20BB9A9B168A947B127B907D107E8E74B
:103EF000F8C7F8A7F865F865F844F823F803D00286
:103F000028A3090508C45AECFFFFFFFFFFFFFFFFCE
:103F1000FFFFFFFFFFFFFFFFDEFB190500C441A706
:103F2000C0E6F803F886F8A7F887F886F8C7F929F5
:103F3000F98AF9ABF9ABF98BF96AF929F908F8C7ED
:103F4000F8A6F886F865F864F823F002B10629258A
:103F500000E410E4192519259D14FFFFFFFFFFFF62
:103F6000FFFFFFFFFFFFFFFFAD9600620882953560
:103F7000CEBAA28BD044F825F887F8A7F8C7F8A7DF
:103F8000F887F886F886F886F887F8A7F8A7F8A6DD
:103F9000F885F865F864F024B864930DB6BB63CF78
:103FA0000883110410E421663A49EF5DFFFFFFFF2B
:103FB000FFFFFFFFFFFFFFFF94D3004210E4CEBBE3
:103FC000FFFFE7BEB576AACCC107E045F845F84645
:103FD000F866F886F886F886F886F865F845F86594
:103FE000E865D044A84388019082D73CEFFF9555FF
:103FF0000883110411041905194694B3FFFFFFFF4C
:10400000FFFFFFFFFFFFFFFF94B300412186DF5D4D
:10401000FFFFFFFFFFFFE7DFC67AB4D3B34EC22A2C
:10402000D168E0E6E8A6E8A5E8A5D8E6C988A9062B
:10403000A822A802A000C800D800E5F7E7FFADF865
:1040400010C410E4110410E411054A8BFFFFFFFFB8
:10405000FFFFFFFFFFFFFFFFA555004129A7DF5D21
:10406000F7FFFFFFFFFFFFFFFFFFFFFFEFFFDF7D1A
:10407000CEDBCE59CDF8CDD7C5F7CE79BEFBA2ABFE
:10408000F003F845D042E843F000D472DFFFAE39C8
:1040900010E410E4110410E411052987FFFFFFFF6D
:1040A000FFFFFFFFFFFFFFFFCE5908832146D71C0C
:1040B000F7FFFFFFFFFFFFFFFFFFFFFFFFFFFFFF18
:1040C000FFFFFFFFFFFFFFFFFFFFFFFFEFFFBA8BC9
:1040D000F804F845E062F044F800DB8EDFFFA5F855
:1040E00010C410E410E4110410E41925FFFFFFFFD1
:1040F000FFFFFFFFFFFFFFFFF7BE29870883B639E9
:10410000F7FFF7DFFFFFFFFFFFFFFFFFFFFFFFFFEF
:10411000FFFFFFFFFFFFFFFFFFFFFFFFE7BEBA4A02
:10412000F803F845F864F844F800E36ED7FF8CF420
:104130000883110410E410E410E41905FFFFFFFFE9
:10414000FFFFFFFFFFFFFFFFFFFF73EF0000847221
:10415000EFFFEFBEFFDFFFFFFFFFFFFFFFFFFFFFF0
:10416000FFFFFFFFFFFFFFFFFFFFFFFFE7DFBA8B50
:10417000F803F845F845F823F800D4D3D7FF5B4E91
:1041800000213A29A555088310C41925FFFFFFFF18
:10419000FFFFFFFFFFFFFFFFFFFFDEFB08A331E88C
:1041A000DF9EE79EEFBFFFFFFFFFFFFFFFFFFFFF69
:1041B000FFFFFFFFFFFFFFFFFFFFFFFFF7FFBC5108
:1041C000E002F803F003E043C2ECCF7EBEFC2146E0
:1041D000002194D3FFFF845100002987FFFFFFFFD8
:1041E000FFFFFFFFFFFFFFFFFFFFFFFF8451000006
:1041F0008CF4EFFFE79EEFBFFFDFFFFFFFFFFFFF46
:10420000FFFFFFFFFFFFFFFFFFFFFFFFFFFFDF3DA0
:10421000BD55BC52BC72B5B7C75DDFFF6BF0000087
:104220003A09F7BFFFFFFFFF9D14A555FFFFFFFFF2
:10423000FFFFFFFFFFFFFFFFFFFFFFFFFFFF4AAC96
:1042400008A4BEBBE7DFE77EEFBEF7DFFFDFFFFFBF
:10425000FFFFFFFFFFFFFFFFFFFFFFFFFFDFF7DFB6
:10426000EFFFDFDFD7BFD79EDFDFA5D8088311269A
:10427000D6DBFFFFFFFFFFFFFFFFFFFFFFFFFFFF9B
:10428000FFFFFFFFFFFFFFFFFFFFFFFFEE79DC8B6C
:10429000312121A9CF3DDFBFDF7EE79EEFBEEFBF1B
:1042A000F7DFF7DFF7DFF7DFF7DFEFBFEFBEE79E00
:1042B000DF7ED75ED75EDFDFB69A19260842A3ED10
:1042C000FFBFFFFFFFFFFFFFFFFFFFFFFFFFFFFF3E
:1042D000FFFFFFFFFFFFFFFFFFFFDD74DBC0FE00FE
:1042E000EE4242022189B67BDFDFD77EDF7EDF7EB2
:1042F000E79EE79EE79EE79EE79EDF7EDF7ED75D37
:10430000D75DDF9EE7FFA5F8110718E3C502FD6042
:10431000D3E6EEDBFFFFFFFFFFFFFFFFFFFFFFFF27
:10432000FFFFFFFFFFFFFFFFF79EBA84FCC1FE42C5
:10433000FE82FEA2838121457474C75EDFDFD77ED3
:10434000D75ED75DD75ED75ED75DD75DD75EDF9E80
:10435000E7FFC73D63F108845242E626FF29FE8647
:10436000F3E0C36AFFFFFFFFFFFFFFFFFFFFFFFF59
:10437000FFFFFFFFFFFFFFFFDE18D2C1FDA2FE22FD
:10438000FE42FE42FE62D4E26A4142497453A63BB9
:10439000C73ED7BFD7BFD7BFDFBFD7BFC73EA61A5D
:1043A00063F229A74182B422FE62FE83FEAAFF0FB8
:1043B000FD67BA63EF3CFFFFFFFFFFFFFFFFFFFF5B
:1043C000FFFFFFFFFFFFFFFFE69AD280FD21FDC246
:1043D000F5E2F5C2F582FD82FD62DC619B216A8413
:1043E0006AE9632C63AF7411636E632C5A895204BB
:1043F0007A81CBC2FCE2FD62FD82FDC2FDC2FDE41A
:10440000FD24CA62E71CFFFFFFFFFFFFFFFFFFFF66
:10441000FFFFFFFFFFFFFFFFFFFFCCB1D281F3C023
:10442000FCC1FD02FD02FCE2FCC2FCC2FC81FB807F
:10443000C9C081A4AD35CE599C718121DA00FBA1A0
:10444000FC82FCA2FC82FCA2FD02FD22FCE2FC003C
:10445000DA60CC90FFFFFFFFFFFFFFFFFFFFFFFFD2
:10446000FFFFFFFFFFFFFFFFFFFFFFFFDE59C40D50
:10447000CB06D2E4DB03DB03DAE3D2C3C2A4B30985
:10448000BCD2F79EFFFFFFFFFFFFE6FBB40EBAA60C
:10449000D283E2E3EB02EB22E322DB03D2E4C36A42
:1044A000D5B6FFFFFFFFFFFFFFFFFFFFFFFFFFFF8F
:1044B000FFFFFFFFFFFFFFFFFFFFFFFFFFFFFFFF0C
:1044C000FFFFFFFFFFFFFFFFBEF77DEFBAD6B6B5D8
:1044D000F39CB294B39CB29434A5F7BDFBDE7DEFA0
:1044E000FFFFFFFFFFFFFFFFFFFFFFFFFFFFFFFFDC
:1044F000FFFFFFFFFFFFFFFFFFFFFFFFFFFFFFFFCC
:10450000FFFFFFFFFFFFFFFFFFFFFFFFFFFFFFFFBB
:10451000FFFFFFFFBEF7FBDEF39CCB5AC739042138
:10452000821042104210410883184529C7390C6394
:1045300075AD3CE7BEF7FFFFFFFFFFFFFFFFFFFF8B
:10454000FFFFFFFFFFFFFFFFFFFFFFFFFFFFFFFF7B
:10455000FFFFFFFFFFFFFFFFFFFFFFFFFFFFFFFF6B
:10456000FFFF3CE7B2940842C3188210042145299A
:1045700086318631863186314529042182104108F1
:10458000C3180842F39C3CE7FFFFFFFFFFFFFFFF5C
:10459000FFFFFFFFFFFFFFFFFFFFFFFFFFFFFFFF2B
:1045A000FFFFFFFFFFFFFFFFFFFFFFFFFFFFFFFF1B
:1045B000FBDE0C63C318C3184529C73908420842FB
:1045C0000842084208420842C739C7398631863155
:1045D000042141088210CB5ABAD6FFFFFFFFFFFF2C
:1045E000FFFFFFFFFFFFFFFFFFFFFFFFFFFFFFFFDB
:1045F000FFFFFFFFFFFFFFFFFFFFFFFFFFFFFBDEF0
:10460000CB5A82104529C73908420842094A494A0B
:10461000494A494A494A494A0842C739C739C73904
:104620008631452983180000C84138C6FFFFFFFFC7
:10463000FFFFFFFFFFFFFFFFFFFFFFFFFFFFFFFF8A
:10464000FFFFFFFFFFFFFFFFFFFFFFFF7DEF8E7309
:1046500082104529C7390842094A8A523084CF7BE3
:104660008A52494A4A52494ACB5ACF7B0C63084284
:10467000C73986314529C3180000494ABAD6FFFF19
:10468000FFFFFFFFFFFFFFFFFFFFFFFFFFFFFFFF3A
:10469000FFFFFFFFFFFFFFFFFFFFFFFFF39CC318BC
:1046A0000421C7390842494A494A72947DEF7DEF97
:1046B000B2944A52494A8A5275ADBEF7BAD64D6B8A
:1046C000C739C73986314529C3184108CF7B7CE7F4
:1046D000FFFFFFFFFFFFFFFFFFFFFFFFFFFFFFFFEA
:1046E000FFFFFFFFFFFFFFFFFFFFBAD60842821068
:1046F000C7390842494A494A8E73FBDEFFFFBEF7BD
:10470000BAD68E73084230843CE77DEFFFFFB6B522
:10471000494AC73986314529042141084529B6B59A
:10472000FFFFFFFFFFFFFFFFFFFFFFFFFFFFFFFF99
:10473000FFFFFFFFFFFFFFFFBEF7718C4108452918
:104740000842494A494A4A52B294BEF7BEF7B29467
:10475000CF7BCF7B494AB6B5F39C0C6338C6BAD63B
:104760000C638739C73986314529C318410830841D
:104770007DEFFFFFFFFFFFFFFFFFFFFFFFFFFFFFDB
:10478000FFFFFFFFFFFFFFFF3CE7CB5A4108C739A0
:104790000842494A4A528A52F39CFFFF7DEFC739CB
:1047A000C3180C63CB5AB6B5B294CB5A75ADFAD6D2
:1047B0004D6B8739C73986314529042141088A5212
:1047C00079CEFFFFFFFFFFFFFFFFFFFFFFFFFFFFB0
:1047D000FFFFFFFFFFFFFFFF38C686310421C841FE
:1047E000494A494A4A52494AB18CBEF7BEF7B29487
:1047F000CF7BCF7B494A74A57DEF7CE7BEF779CEAE
:104800000C63C739C73986314529042182104529EF
:1048100075ADBEF7FFFFFFFFFFFFFFFFFFFFFFFFCD
:10482000FFFFFFFFFFFFFFFF34A582108631084224
:10483000494A494A8A52494A4D6BBAD6FFFFFFFF9F
:1048400079CE0D63C739CF7B7DEFFFFFFFFF75ADDD
:1048500008428631C739863145294529C318C3180E
:10486000B2947DEFFFFFFFFFFFFFFFFFFFFFFFFFA2
:10487000FFFFFFFFFFFFBEF7B28C4108C7390842B8
:10488000494A494A8A528A524A4AD07B7AC67BBEF2
:10489000906BC9398831C939B384BBC6F8B5CC5AD5
:1048A0008631C739C739863145294529C420410891
:1048B00030843CE7FFFFFFFFFFFFFFFFFFFFFFFF2D
:1048C000FFFFFFFFFFFF3CE78A4AC310C7390842DA
:1048D000494A494A4A4A4A42093A084A096B497BC5
:1048E000C67A05834683C57AC672097B485A8731E2
:1048F00088218829863186314529452904214108A6
:104900004A4ABAD6FFFFFFFFFFFFFFFFFFFFFFFF8F
:10491000FFFFFFFFFFFFF7C582500541C72908428F
:10492000494A4A42494A097B889BC6B321D4A0DC44
:10493000E1E461ED61ED21EDA0E420DC80CB43AB4F
:10494000C482065A472146294529042904198210A0
:104950008218F39C7DEFFFFFFFFFFFFFFFFFFFFFCC
:10496000FFFFFFFF7DEF4D9300A082B8C7310932F2
:10497000494A867A43C36BEDF4F6EBFD20FD20FD3A
:1049800060FDA0FDA0FD60FD60FD20FDE0FCA0FC41
:1049900060F4C1DB839AC54945290419C4208238D3
:1049A0000050CB6ABAD6FFFFFFFFFFFFFFFFFFFFFC
:1049B000FFFFFFFFFBEE04A100C000F0C3A0C84151
:1049C0004942059B20FCA4FC69FDE8FD63FD20FD38
:1049D00060FD60FD60FD20FD20FDE0FCE0FCA0FC32
:1049E00060FC20FC41D3C5494519C4388268418820
:1049F0000070495A79CEFFFFFFFFFFFFFFFFFFFF67
:104A0000FFFFFFFFFBF682C000D086C146F141C820
:104A1000457989528862866AC67AC4BBE1FC60FD2A
:104A200060FDA0FDA0FD60FD60FDE0FC60E403937F
:104A30008472446AC5414529C35841A8409800B0D2
:104A400000600C6B79CEFFFFFFFFFFFFFFFFFFFF52
:104A5000FFFF7DEFCE83828800F8C4D80CF38AFA7A
:104A600082E882B04569C7510842083A865A839B5A
:104A7000A2BC22CD21CDA1C422B4C47A063A862993
:104A800045290531C450419000C000A800A000A8ED
:104A900000304A4ABAD6FFFFFFFFFFFFFFFFFFFFCC
:104AA0007DEF8E73C318053982A800F8C3F84DFB5B
:104AB0004DFBC7F9C3F082D8C3B0048145614651AC
:104AC000864986494641454145414541054904617C
:104AD000829041B000D000C800A800A800B841589A
:104AE00082108210B294BEF7FFFFFFFFFFFFBEF7F8
:104AF000CF7B8210042186298641049940E841F841
:104B000086F9CBFA49FA82F800F800F000E841D8BB
:104B100041D041C041C041C041C041C800D000E0C7
:104B200000E000D800D000B800A841888248821078
:104B300082100000452979CEFFFFFFFFBEF7F39CEE
:104B40008210C31845298631C731307CF3DC86E1F9
:104B500000F000F841F841F800F800F800F800F81B
:104B600000F800F800F800F800F800F800E800E0AD
:104B700000E000D800C841A08A9A0C63041182109A
:104B80008210410800004D6B7DEFFFFFFBDE084205
:104B90004210452986318631494A38BEFFFF38D652
:104BA00086A900C800E000F000F800F800F800F85E
:104BB00000F800F800F800F800F000F000E800E06D
:104BC00000D0C3988A8AB2A4BAC6F7B50842410891
:104BD0008210410800004529F7BDFFFF718C410894
:104BE00004214529863186310C633CE7FFFF79D6E5
:104BF00046B900E042C882A882B041D882E882F07B
:104C000041E841E841E841F041E841D804C1089257
:104C10004D8B34A5FBC6FBD6BACE3CE73084C31817
:104C20004108410800004108CF7B7DEF494A000060
:104C300004214529463186313084FFFFFFF7F7DD37
:104C400009DA83F801F042C08298499AF3B4F3CCB0
:104C500071BC8EBB8EBB30BC71BCF3BCB6BDFBCE91
:104C6000BEE77DE73BDFBAD679CEFBDE75AD863198
:104C70004108410800000000494AFBDE04214108C8
:104C80000421452945298739B294FFFFBEF734DD59
:104C90000CEB09FA00F001D800D88BD27DE7FFFFBA
:104CA000FFFFFFFFFFFFFFFFFFFFFFFFFFFFBEFF55
:104CB0007DEFFBDEFBDEBAD679CEBAD678C6C73931
:104CC0000000410800000000C73979CE00008210C2
:104CD000C318042105298631B39CFFFFFFF775DD5A
:104CE000C7E9C7F901F801F000E849E2FBEEFFFF70
:104CF000FFFFFFFFFFFFFFFFFFFFFFFFFFFFBEF70D
:104D00007DEFFBDEFBDEBAD679CEBAD6B9CE08424D
:104D10000000000000000000C73938C60000821003
:104D200082100421042145293084FFFFFFFF38DE73
:104D3000C4D000F001F800F800F008D2FBE6FFFF55
:104D4000FFFFFFFFFFFFFFFFFFFFFFFFFFFFBEF7BC
:104D50007DEFFBDEBAD679CE79CEBAD679CEC73919
:104D60004108000000000000863138C60000000045
:104D7000C318CB5A8631C318CB5A7DEFFFFF7DEFA6
:104D8000CFBBC3B041D041D082B84DB37DE7FFFF68
:104D9000FFFFFFFFFFFFFFFFFFFFFFFFBEF7BEF7B5
:104DA0003DEFFBDEBAD679CE79CEFAD6F7BD042137
:104DB0008631042100000000863138C68631C318D0
:104DC000CB5A75ADCF7B41088631F7BDFFFFFFFFA2
:104DD000BEEF74B5309C309C72A4BBD6FFFFFFFFC2
:104DE000FFFFFFFFFFFFFFFFFFFFFFFFBEF77DEFAE
:104DF0003CE7FBDEBAD679CE79CE3CE7718C8108F0
:104E00000C63CF7B821000008A5238C675AD718C5E
:104E1000B6B53CE7FBDEC7390000CF73FFFFFFFFED
:104E2000FFFFFFFFFFFFFFFFFFFFFFFFFFFFFFFF92
:104E3000FFFFFFFFFFFFFFFFFFFFBEF77DEF7DEFEF
:104E40003BDFFAD679CE79CEFBDEB9CEC739C420A6
:104E5000718CBAD6718CCB5AB294BAD6FFFF7DEF63
:104E60007DEFFFFFFFFFB6B54629051975A5FFFFCA
:104E7000FFFFFFFFFFFFFFFFFFFFFFFFFFFFFFFF42
:104E8000FFFFFFFFFFFFFFFFFFFFBEF77DEF3CE7E8
:104E9000FBDEBAD679CEBAD6FCDE4E6342080C638E
:104EA000F7BDBEF7FFFFFBDEFBDEBEF7FFFFFFFF38
:104EB000FFFFFFFFFFFFFFFFF49C04210521B6A5C4
:104EC000FFFFFFFFFFFFFFFFFFFFFFFFFFFFFFFFF2
:104ED000FFFFFFFFFFFFBEF7BEF77DEF3CE7FBDE06
:104EE000BAD679CEFBDEBBD6D17383188639349D12
:104EF000BDEFFFFFFFFFFFFFFFFFFFFFFFFFFFFF14
:104F0000FFFFFFFFBEFF35D6EBCC43B34051051981
:104F1000F58CBEEFFFFFFFFFFFFFFFFFFFFFFFFF6F
:104F2000FFFFBEF7BEF77DEF7DEF3CE7FBDEBADEAD
:104F3000BAD63CDF3ABE4F63824940A323B4CC8348
:104F40003ABEFFFFFFFFFFFFFFFFFFFFFFFFFFFF77
:104F5000FFFFBFF7B5BD829220F4A0FC60E4408261
:104F600084418F6B77AD3DE7FFFFFFFFFEFFBEF78C
:104F7000BEF7BEF77DEF7DEF3CE7FBDEFBDE3DE7F6
:104F8000BBCE369D0B6B416A60C420FE60F5008B82
:104F9000C76A38C6BEF7FFFFFFFFFFFFFFFFFFFF37
:104FA000FFFF7DEF4B7B80B2A0FCA0FCE0FCE0FCAF
:104FB000C0CBC18A45624D6BB394F7BD3DDFFFF7AF
:104FC000FFFFBEF77DEF7DEF7DE73DDFBAC675A53C
:104FD0008D7B847A40B3E0ECE0FDE0FD60F520E5F8
:104FE000A0D40A6BFBDEFFFFFFFFFFFFFFFFFFFF09
:104FF000FFFF7DEFCC9340EB60FCA0FCE0FC20FDCC
:1050000060FD20F5A0D4C0BB429B458B6B9CAE9C41
:10501000718CB394339D34A5F2A4F0B4CA9B049B65
:1050200040BB20E420FDA0FDA0FDE0FDE0FDE0FD93
:1050300020C4885A38BEFFFFFFFFFFFFFFFFFFFFBE
:10504000FFFFFFFF78D646AB40DB20F460FCA0FCFE
:10505000E0FC60FDA0FD60FD20F5A0DCC0B3C05108
:1050600086290D638F7B0D5BC741018200C3C0E3BE
:1050700060FCA0FCE0FCE0FC60F560F520E5809BB6
:105080008662308479CEFFFFFFFFFFFFFFFFFFFF47
:10509000FFFFFFFFFFFF38C62D9C059343A382B39C
:1050A000C2BBC2BB22B482A34293C37A85620B63A4
:1050B0007184B6B579CE79C6B5AD70944A8B068346
:1050C0000493049B439B439B4393048308738D7316
:1050D000B39479CE7DEFFFFFFFFFFFFFFFFFFFFFE0
:1050E000FFFFFFFFFFFFFFFF3CDF38BE75B533A5B5
:1050F00033A5F39CF39CF39CF394F39C35A5F8BD86
:10510000FBDEBEF7FFFFFFFFFFFF7EEFBBD6F8BD64
:10511000B6AD75AD34A5339D349D35A5B7AD79C613
:105120003CE7BEF7FFFFFFFFFFFFFFFF4C5100080A
:105130000000002020000000280100086C51000839
:1051400020000020100B00004401000800000000B7
:105150000000000000000000010000003700000017
:0C5160003B0000001700000000000000F1
:04000005080000ED02
:00000001FF
